:020000040800F2
:1000000058140020811B0008891B00088B1B000866
:100010008D1B00088F1B0008911B000800000000CA
:10002000000000000000000000000000931B00081A
:10003000951B000800000000C10100084D0B0008DE
:100040009B1B00089B1B00089B1B00089B1B0008B8
:100050009B1B00089B1B00089B1B00089B1B0008A8
:100060009B1B00089B1B00089B1B00089B1B000898
:100070009B1B00089B1B00089B1B00089B1B000888
:100080009B1B00089B1B00089B1B00089B1B000878
:100090009B1B00089B1B00089B1B00089B1B000868
:1000A0009B1B00089B1B00089B1B00089B1B000858
:1000B0009B1B00089B1B00089B1B00089B1B000848
:1000C0009B1B00089B1B00089B1B00089B1B000838
:1000D0009B1B00089B1B00089B1B00089B1B000828
:1000E0009B1B00089B1B00089B1B00089B1B000818
:1000F0009B1B00089B1B00089B1B00089B1B000808
:100100009B1B00089B1B00089B1B00089B1B0008F7
:100110009B1B00089B1B00089B1B00089B1B0008E7
:100120009B1B00089B1B00089B1B00089B1B0008D7
:100130009B1B00089B1B00089B1B00089B1B0008C7
:100140009B1B00089B1B00089B1B00089B1B0008B7
:100150009B1B00089B1B00089B1B00089B1B0008A7
:100160009B1B00089B1B00089B1B00089B1B000897
:100170009B1B00089B1B00089B1B00089B1B000887
:100180009B1B00089B1B00089B1B00089B1B000877
:100190009B1B00089B1B00089B1B00089B1B000867
:1001A0009B1B00089B1B00089B1B0008DFF80CD062
:1001B00003F08AFD004800479D0200085814002003
:1001C00072B6EFF309800A4A0A4B20B1203880E862
:1001D000F00F1168086018681060006890E8F00F70
:1001E000203080F309884EF0040E62B6704700BFDD
:1001F000DC000020E000002080F309887047000048
:10020000324833490860A8303249086032482F49E3
:1002100008601420486041F2707088606320C860F4
:1002200065200861192048610120886141F27070E1
:10023000C861322008622948486229488862B0EEC5
:10024000000A084680ED0B0A0120086340F2DD71C8
:100250001E48C187042180F83D101A2180F83B1008
:10026000112180F83A102E2180F8391028201749E2
:1002700081F83800002008640E2048640920886452
:100280000B20C8641748006808651648001D006800
:1002900048651448083000688865704710B5FFF756
:1002A000AFFF1149086880470F48D0F880100F4809
:1002B00088470D48D0F884100D4888470A49D1F87E
:1002C0008800804762B6002010BD00008C0100202D
:1002D000140000201800002000350C0020F40E004F
:1002E000A0860100E8F7FF1F1C000020F7020008AD
:1002F0006B03000870471948816A01208847FFF79F
:10030000F9FF29E01549D1F890008047044624F010
:100310007F45200E012802D002281BD115E0701C59
:100320000646022800DB002616B1012E0BD104E0A0
:100330000A49D1F89C00804705E00848D0F8A01091
:100340000748884700BF00BF05E0064909686818EC
:10035000804700E000BF00BFD4E700001C00002081
:10036000A83D00080C0000207047FFF7FDFF0C4877
:10037000406B64300B49086011E00948406B094943
:10038000096888420BD30648406B64300549086011
:10039000034AD2F83401044AD2F898108847ECE7AF
:1003A0008C010020000000201C000020704708B5D0
:1003B000009000BF00994A1E00920029FAD108BDA2
:1003C00010B5044602E02A20FFF7F1FF2000A4F157
:1003D0000104F8D110BD10B5044603E04AF2104004
:1003E000FFF7E5FF2000A4F10104F7D110BD10B51F
:1003F0000446102C02DB14A003F0A4FC102C02DA3B
:100400001648005D10BD3020FCE770B505460C466F
:1004100044EA05641248D0F88C102046884770BD25
:1004200010B572B60F4800F07F400F4908600F48C2
:1004300000F07F400D49086000F057F900F02EFCF5
:1004400000F0D0FA10BD00000A4153534552543A0F
:1004500020686578203C2031360A0000A895020803
:100460001C000020210400080C00002010000020C7
:1004700002464FF080700860081F014602606FF06E
:100480000103081F014603604FF01233081F0146A5
:1004900003604FF00333081F014603604FF002333F
:1004A000081F014603605B10081F0146036000231C
:1004B000081F014603604FF01133081F0146036017
:1004C0004FF01033081F014603604FF00933081F37
:1004D000014603604FF00833081F014603604FF0E8
:1004E0000733081F014603604FF00633081F01461B
:1004F00003604FF00533081F014603604FF00433DB
:10050000081F0146036008467047016000224260F0
:100510008260704770B5044686492046FFF7A8FF01
:10052000054629468448FFF7F0FF70BD70B50446C4
:1005300082492046FFF79CFF054629468048FFF781
:10054000E4FF70BD7F490968884205D07E49086094
:100550004FF080517D4A1160704710B57648806831
:1005600050B175488068401E7349886008468068AD
:1005700010B90846FFF7E6FF10BD75487549C26F10
:10058000012090476C486F490860084600686E4932
:1005900008604FF080506D49086062B600BFFEE70A
:1005A00010B5044672B66C480068401C6A49086081
:1005B000644800686249884213D15F48406880B946
:1005C00000205D4988600846446063480068401E1A
:1005D0006149086000B962B65748FFF7B3FF0120D0
:1005E00010BD5E48008A282808DB5B480068401E72
:1005F0005949086000B962B60020F1E75748008AFF
:10060000401C564908820846806804600846806895
:10061000001D8860084680684968884203D94F48B1
:1006200000684E4988604C480068401E4A4908608E
:1006300000B962B60120D3E710B572B6464800682B
:10064000401C454908603C48406800B135E04348DB
:10065000008A00281DDD4148C06804683F48C06822
:10066000001D3E49C8600846008A401E08820846B0
:10067000C0684968884203D9384800683749C8606B
:1006800035480068401E3449086000B962B620460B
:1006900010BD0020284988602F480068401E2E4960
:1006A000086000B962B62648FFF74CFF72B62A48C8
:1006B0000068401C2849086000BF1F4844680020AB
:1006C0001D49486024480068401E2349086000B95D
:1006D00062B62046DCE710B50446002C04DD16485F
:1006E00084601748FFF72EFF10BD10B51C481B494A
:1006F00008609C30486008460068886008460068CA
:10070000C86000200882FFF777FD16481049C1F83D
:10071000800015490E48C0F884101449C0F88810AC
:100720001349C0F890101349C0F88C101249C0F852
:10073000941010BDBC09002000100020FC0F002008
:100740000C100020DC000020E000002004ED00E0A0
:100750001C0000205B05000808000020C8020020E3
:10076000DC020020150500082D0500087B050008A7
:1007700039060008A1050008D706000820B94FF087
:100780005041B44A116002E0B349B24A1160704767
:10079000B24908807047B24908607047B0480068A5
:1007A00070470146002000BF04E0AA4B1B6823F8F5
:1007B0001010401CB0F5A02FF7D370472DE9F0477B
:1007C00005460E46134600BF002100BF0022DFF899
:1007D0009092D9F80090B9F80490C9F1F00CC5EBEB
:1007E00005194FEA49173244DFF87492D9F800909E
:1007F000B9F804904FF00C0A99FBFAF94FEAC90ACC
:100800004FF0800909FA0AF800204AE000213EE092
:10081000DFF84092D9F800904FF0020A0AFB0299E3
:1008200009EB070433F8109048FA01FA09EA0A09BB
:10083000B9F1000F08D1DFF82892D9F80090B9F883
:100840000490B9F10C0F13DD33F810904FF0010A4A
:100850000AFA01FA09EA0A09B9F1000F0FD1DFF823
:100860000092D9F80090B9F80490B9F10C0F06DDA8
:10087000DFF8F091B9F80090A4F8009005E0DFF8F7
:10088000DC91B9F80090A4F80090521C491CDFF8E4
:10089000D091D9F80090B9F804908945B8D862444D
:1008A000401CDFF8BC91D9F80090B9F8069081455A
:1008B000ACD8BDE8F08770B505460E461446A4F1E5
:1008C0002000C4B266480068016865480068C088B6
:1008D000604301EB400231462846FFF76FFF70BDD1
:1008E00070B506460C4600250AE0227829463046B7
:1008F000FFF7E1FF5A4800688088284485B2641CED
:10090000F02D14DA564800688088284480B2544993
:1009100009688988884201DB012000E000202178F5
:1009200009B1012100E0002108400028DDD170BD9F
:1009300010B54FF47840FFF734FF0020FFF728FF91
:10094000FFF72CFFC48848A12046FFF7C9FFFFF737
:1009500025FFC08800EB800084B247A12046FFF746
:10096000BFFFFFF71BFFC08800EBC00084B246A1A9
:100970002046FFF7B5FF10BD10B596B0044601F054
:1009800081F900200C9002200D9000200F900E9015
:10099000109011904FF050401290002013904FF49F
:1009A000A0701490F02015900CA801F076F9019435
:1009B00000200290022003900020079008900990E8
:1009C0000A9001A801F0FFF96420FFF7F0FC01F0A4
:1009D000DDF900BF022001F005FB0028FAD016B0B7
:1009E00010BD704710B5AFF26F012B48C0F8A010D2
:1009F000AFF2C301C0F89C1028482749C1F89800FD
:100A00002748FFF7C8FE0020FFF7B8FE4FF4FC6050
:100A1000FFF7C7FE4FF47840FFF7BAFEFFF7BEFEC0
:100A2000C48820A12046FFF75BFFFFF7B7FEC08810
:100A300000EB800084B21FA12046FFF751FFFFF7B3
:100A4000ADFEC08800EBC00084B21EA12046FFF7B7
:100A500047FF10BDEC000020000005D0E80000209A
:100A6000E4000020EA000020202020204469737068
:100A70006C617920202020002020202020202020B0
:100A800020202020202020002020202020546573BA
:100A900074202020202020001C000020E3090008F2
:100AA000F000002020202020206D73475549202091
:100AB000202020002020202056312E302E312020D2
:100AC000202020002020202057616E67737720208F
:100AD0002020200010B502462AB3012A12D0022A93
:100AE00032D1594800780A2801D1002010BD56485B
:100AF00003780078401C544C2070544840F8231070
:100B00000120F3E752480078042801D10020EDE7E6
:100B10004F4803780078401C4D4C20704D4840F8F9
:100B200023100120E2E74C480078022801D1002080
:100B3000DCE7494803780078401C474C2070474860
:100B400040F823100120D1E70020CFE710B544483A
:100B50000078401CC0B242490870642801D10020CE
:100B600008703E49086880473C49486880473C48CF
:100B700000780A2190FBF1F0C4B23948007890FB6C
:100B8000F1F201FB12000A282FD2DFE800F005097C
:100B90000D11151A2E2225262E490868804724E0BB
:100BA0002C494868804720E02A49886880471CE033
:100BB0002849C868804718E0244951F82400804734
:100BC00013E028480068406B401C264909684863C8
:100BD0000BE000F083FC08E007E0012C02D100F0FC
:100BE000E4FB00E000BF00BF00BF00BF10BD30B598
:100BF0001D48006842F21072B0FBF2F1481EB0F1DD
:100C0000807F00D31BE0481E4FF0E0225061501758
:100C10000F22002807DA13071D0E144B00F00F04F3
:100C2000241F1D5503E013071C0E114B1C5400BF5D
:100C300000204FF0E02290610720106100BF0D49B5
:100C40000D48C16730BD0000500100202801002080
:100C50005101002018010020520100201001002045
:100C600053010020140000206401002018ED00E072
:100C700000E400E0D50A00081C00002010B50028A0
:100C800007DA0A07140E124A00F00F031B1FD45490
:100C900003E00A07130E0F4A135410BD10B500F0FD
:100CA0007BFC00F0EDFB00F017FE00F0F1FAFFF71F
:100CB0009EFF4FF4407000F075FF0E214FF0FF30A3
:100CC000FFF7DCFF0F216FF00100FFF7D7FF10BD2A
:100CD00018ED00E000E400E000B587B0012120201D
:100CE00002F08BFC0121080502F0DFFC802005905A
:100CF00001208DF8190002208DF8180000208DF8D1
:100D00001A0002208DF81B0005A9FE4801F090FE94
:100D10004FF48070059005A9FA4801F089FE4FF460
:100D20000070059005A9F74801F082FE0522072111
:100D3000F44801F008FF05220821F24801F003FF02
:100D400005220921EF4801F0FEFEEF4802F094FD74
:100D50000020ADF800004FF48270ADF802000020D2
:100D6000ADF80400ADF80600ADF808004FF40070CF
:100D7000ADF80A001820ADF80C000020ADF80E0008
:100D80000720ADF810006946DF4802F0C1FD0121DF
:100D9000DD4802F0A0FE07B000BD10B504460020FB
:100DA000DA490860DA49C1F8B4022146D64802F0AF
:100DB00013FF00BF0221D44802F045FF0028F9D0FC
:100DC00000BF8021D04802F03EFF0028F9D1012069
:100DD000CE49086010BD10B504460020CB4908601C
:100DE0000120CB49C1F8B4022146C74802F0F4FE05
:100DF00000BF0221C44802F026FF0028F9D000BF3E
:100E00008021C14802F01FFF0028F9D10120BF490D
:100E1000086010BD10B5CA20FFF7BFFFC320FFF761
:100E2000DAFF0820FFF7D7FF5020FFF7D4FFCF20CD
:100E3000FFF7B3FF0020FFF7CEFFC120FFF7CBFF86
:100E40003020FFF7C8FFED20FFF7A7FF6420FFF772
:100E5000C2FF0320FFF7BFFF1220FFF7BCFF812076
:100E6000FFF7B9FFE820FFF798FF8520FFF7B3FFF2
:100E70000020FFF7B0FF7820FFF7ADFFCB20FFF792
:100E80008CFF3920FFF7A7FF2C20FFF7A4FF0020DD
:100E9000FFF7A1FF3420FFF79EFF0220FFF79BFF23
:100EA000F720FFF77AFF2020FFF795FFEA20FFF7F2
:100EB00074FF0020FFF78FFF0020FFF78CFFB120A9
:100EC000FFF76BFF0020FFF786FF1B20FFF783FF74
:100ED000B620FFF762FF0A20FFF77DFFA220FFF791
:100EE0007AFFC020FFF759FF1020FFF774FFC120E1
:100EF000FFF753FF1020FFF76EFFC520FFF74DFFF0
:100F00004520FFF768FF1520FFF765FFC720FFF7B3
:100F100044FF9020FFF75FFF3620FFF73EFFC82019
:100F2000FFF759FFF220FFF738FF0020FFF753FFCC
:100F3000B020FFF732FFC220FFF74DFFB620FFF7CA
:100F40002CFF0A20FFF747FFA720FFF744FF2720C9
:100F5000FFF741FF0420FFF73EFF2A20FFF71DFFA8
:100F60000020FFF738FF0020FFF735FF0020FFF7D4
:100F700032FFEF20FFF72FFF2B20FFF70EFF00209F
:100F8000FFF729FF0020FFF726FF0120FFF723FFCF
:100F90003F20FFF720FFF620FFF7FFFE0120FFF7BD
:100FA0001AFF0020FFF717FF0620FFF714FF2C2081
:100FB000FFF7F3FEC820FFF7FAF92620FFF7EDFE52
:100FC0000120FFF708FFE020FFF7E7FE0F20FFF703
:100FD00002FF2920FFF7FFFE2420FFF7FCFE0C2074
:100FE000FFF7F9FE0E20FFF7F6FE0920FFF7F3FEEC
:100FF0004E20FFF7F0FE7820FFF7EDFE3C20FFF7D4
:10100000EAFE0920FFF7E7FE1320FFF7E4FE0520C4
:10101000FFF7E1FE1720FFF7DEFE1120FFF7DBFEF2
:101020000020FFF7D8FEE120FFF7B7FE0020FFF712
:10103000D2FE1620FFF7CFFE1B20FFF7CCFE0420C8
:10104000FFF7C9FE1120FFF7C6FE0720FFF7C3FE1A
:101050003120FFF7C0FE3320FFF7BDFE4220FFF72F
:10106000BAFE0520FFF7B7FE0C20FFF7B4FE0A20FA
:10107000FFF7B1FE2820FFF7AEFE2F20FFF7ABFEF3
:101080000F20FFF7A8FE1120FFF787FEC820FFF70B
:101090008EF92920FFF781FE2C20FFF77EFE10BD80
:1010A0001CB501216F2002F0A8FA0E220321194875
:1010B00001F049FD0E220421164801F044FD0E22E4
:1010C0000621144801F03FFD0E220B21114801F0CA
:1010D0003AFD0E220C210F4801F035FD41F6580073
:1010E000009002208DF805008DF8040000208DF896
:1010F00006008DF807006946064801F099FC0922B0
:10110000002109E0001402400050014088024142E1
:1011100000804142000002409A4801F014FD09227B
:101120000121984801F00FFD0E220821954801F099
:101130000AFD0E220921934801F005FD0E220A2125
:10114000904801F000FD0E220B218E4801F0FBFCBF
:1011500040F60370009069468A4801F069FC0E224F
:101160000621894801F0EFFC0E220721864801F094
:10117000EAFC0E220A21844801F0E5FC4FF4986055
:1011800000906946804801F053FC0E2203217F48FD
:1011900001F0D9FC0E2206217C4801F0D4FC482045
:1011A00000906946794801F043FC0E220A217848F4
:1011B00001F0C9FC4FF4806000906946744801F06A
:1011C00037FC0E220621734801F0BDFC0E220721D8
:1011D000704801F0B8FC09220A216E4801F0B3FC06
:1011E0000E220B216B4801F0AEFC09220C2169484C
:1011F00001F0A9FC4FF4E65000906946654801F003
:1012000017FC1CBD00B591B01E20019040F20D10DE
:1012100002900420039040F24310049002200590B5
:10122000FF20069000200790089009900A904FF444
:1012300080600B9005200C9040F2E3100E90C01ED1
:101240000F904FF4A07010904FF050400D9001A9F6
:10125000514801F0DAFD51480D904FF4C0600B90F9
:1012600007200C9001A94C48803001F0CEFD0121EF
:10127000494801F06CFE01214748803001F067FECB
:10128000012001F0BEFD012001F082FD11B000BD82
:1012900010B592B001210C2002F0AFF901204049B5
:1012A00008600420109002208DF8450001208DF880
:1012B000440000208DF846008DF8470010A9324800
:1012C00001F0B6FB4FF40050109010A92F4801F028
:1012D000AFFBFFF701FDFFF79DFDFFF7E1FE0121E9
:1012E000880602F0E2F90121C80502F086F9002023
:1012F00001900290039004900D900E900F900422A4
:101300000721C02002F04DF84FF4003002F068F9D8
:10131000012002F050F800BF3D2001F0C1FF00287D
:10132000FAD009200590012006901D200790032087
:10133000089040F20D10099040F243100A9040F2DC
:1013400017100B9040F247100C9001A801F03FFCE1
:10135000FFF758FF00211048803001F0C3FE012044
:1013600001F04FFD012001F000FD002405E0FF2108
:101370006000A0F140500180641CB4F5963FF6DB9C
:1013800012B010BD0004024000080240000C0240F0
:10139000001402400018024084680140000005D09B
:1013A0008802414243490870704710B542480078AE
:1013B000C043414908700846007890B101213F4878
:1013C00001F098FB04460CB9FF2400E000243948E2
:1013D000007810B13A48047050E0FF203849087096
:1013E0004CE037480078FF2811D03548007835495F
:1013F000087000203449087034480078401CC0B29E
:1014000032490870142839DD1420087036E02E485F
:101410000078401C2C4908700846007802282DDB13
:10142000022008702A48007840B129480078401E00
:101430002749087000202549087010BD234800780E
:10144000022800DAF9E721480078142802D11D4863
:10145000047807E01D480078022802DB1948047868
:1014600000E0FF24FF2C06D021460120FEF7CDFF2F
:101470000A201749087000201449087000BFDCE7F3
:101480001CB50121084602F0B8F80121880302F0DA
:101490000CF900208DF8040002208DF807000120CF
:1014A00000906946054801F0C3FA0A490A4881627A
:1014B0001CBD0000590100205A010020000002401C
:1014C0005401002055010020570100205601002042
:1014D00058010020A51300081C00002070B500244E
:1014E0003048006800B970BD2E48056829E005F055
:1014F000010020B32C4850F83400401E2A4941F81E
:101500003400E0B90120A0402649096881432548FC
:10151000016026480068E04000F0010050B1224818
:1015200000EBC4004068224A1268811A0220FEF7CC
:101530006CFF04E01C4901EBC401486880476D085A
:10154000641C002DD3D100BFCDE730B5164C44F854
:10155000302004EBC004636039B101248440134D92
:101560002D682C43114D2C6006E0012484400F4D62
:101570002D68A5430D4C256001248440094D2D683C
:101580002C43084D2C6030BD01218140054A126872
:101590008A4304490A6070470649074801660749BB
:1015A000416670475C010020181000206001002097
:1015B0000C0000204B1500081C00002089150008B5
:1015C0001CB501217E2002F018F802208DF80400DD
:1015D0008DF8050000208DF806008DF807000C221C
:1015E0000521DA4801F0AFFA0C220621D74801F0B4
:1015F000AAFA602000906946D44801F019FA0C223A
:101600000021D34801F09FFA012000906946D0489C
:1016100001F00EFA0C220021CE4801F094FA0C22BF
:101620000121CC4801F08FFA0C220821C94801F0B1
:101630008AFA0C220921C74801F085FA0C220A21F6
:10164000C44801F080FA0C220E21C24801F07BFA56
:101650000C220F21BF4801F076FA4CF20370009083
:101660006946BC4801F0E4F90C220021BA4801F0B7
:101670006AFA0C220121B84801F065FA0C22072110
:10168000B54801F060FA0C220821B34801F05BFA7A
:101690000C220921B04801F056FA0C220A21AE486A
:1016A00001F051FA0C220B21AB4801F04CFA0C224C
:1016B0001146A94801F047FA0C220D21A64801F075
:1016C00042FA0C220E21A44801F03DFA0C220F210F
:1016D000A14801F038FA4FF68370009069469E48A1
:1016E00001F0A6F90C2200219C4801F02CFA0C22F2
:1016F00001219A4801F027FA0C220221974801F0B3
:1017000022FA0C220321954801F01DFA0C22042133
:10171000924801F018FA0C220521904801F013FAC2
:101720000C220B218D4801F00EFA0C2211468B4839
:1017300001F009FA0C220D21884801F004FA0C226C
:101740000E21864801F0FFF90C220F21834801F099
:10175000FAF94FF63F0000906946804801F068F9B9
:101760000C2200217E4801F0EEF90C2201217C4878
:1017700001F0E9F90C220421794801F0E4F90C2286
:101780000521774801F0DFF90C220821744801F0A7
:10179000DAF90C220F21724801F0D5F948F2331022
:1017A000009069466E4801F043F91CBD1FB5002446
:1017B0000120009008200190012002900020039059
:1017C00000BF2021012000F0FCFF0028F9D168466D
:1017D00000F052FF6420FEF7FEFD0220009008207A
:1017E0000190012002900020039000BF20210120E1
:1017F00000F0E7FF0028F9D1684600F03DFF032024
:10180000009008200190042002900020039000BF67
:101810002021012000F0D5FF0028F9D1684600F012
:101820002BFF00BF2021012000F0CBFF0028F9D1C1
:10183000684600F021FF40F2312404200090082087
:10184000019001200290039400BF2021012000F0AC
:10185000B8FF0028F9D1684600F00EFF40F26A5048
:1018600000F028FF00BF2021012000F0AAFF00287F
:10187000F9D11FBD2DE9F04104460D461746A5F1EB
:1018800040560021012000F028FF00BF2021012048
:1018900000F097FF0028F9D101E001CC01C6380023
:1018A000A7F10107F9D1BDE8F0812DE9F041044627
:1018B0000D461746A5F1405600BF2021012000F03B
:1018C00080FF0028F9D101E001CE01C43800A7F162
:1018D0000107F9D1BDE8F08100B593B0FFF770FEC4
:1018E0000121084601F0BFFE02200190072002906E
:1018F0000420039007200490022005900690079092
:10190000012008900020099004200A9010200B90DC
:1019100040200C904FF4C0700D9000200E904FF4BA
:1019200000600F90002010904FF40050119001A81B
:10193000129008A800F001FEFFF738FF09490A4895
:1019400041630A49816313B000BD000000040240F6
:1019500000080240000C0240001002400014024047
:1019600000180240751800081C000020AB18000881
:101970000CB50020019000907648006840F480305B
:101980007449086000BF7348006800F4003000909C
:101990000198401C0190009818B90198B0F5A04F2B
:1019A000F1D16C48006800F4003010B101200090C3
:1019B00001E0002000900098012846D165484030A1
:1019C000006840F080506349403108606248006818
:1019D00040F44040604908605E48083000685D4956
:1019E000083108600846006840F400400860084676
:1019F000006840F4A05008605848091F0860081F9C
:101A0000006840F08070091F086000BF51480068FE
:101A100000F000700028F9D040F2057050490860CD
:101A20004C480830006820F003004A49083108603B
:101A30000846006840F00200086000BF45480830D2
:101A4000006800F00C000828F8D10CBD10B545481E
:101A5000006840F47000434908603E48006840F068
:101A600001003C49086000203A49083108603948C3
:101A700000683D490840374908603C48091D086036
:101A8000081F006820F48020091F086000203149E9
:101A90000C310860FFF76CFF4FF00060314980396E
:101AA000086010BD70B5002000220223002402212E
:101AB000284D08352D6805F00C0020B1042806D00B
:101AC000082834D107E02A4D2A4E356033E02A4DEC
:101AD000284E35602FE01F4D2D1D2D68C5F3805415
:101AE0001C4D2D1D2D6805F03F0154B1224DB5FB55
:101AF000F1F5184E361D3668C6F3881605FB06F25A
:101B000009E01B4DB5FBF1F5124E361D3668C6F3E4
:101B1000881605FB06F20F4D2D1D2D68C5F30145F6
:101B20006D1C6B00B2FBF3F5124E356003E0104DF7
:101B3000104E356000BF00BF064D08352D68C5F357
:101B400003150E4E705D0B4D2D68C540094E356076
:101B500070BD00000038024000700040085440078B
:101B6000003C024088ED00E0FFFFF6FE103000244C
:101B70000024F4006401002040787D016801002009
:101B80000648804706480047FEE7FEE7FEE7FEE717
:101B9000FEE7FEE7FEE7FEE7FEE7FEE74D1A000878
:101BA000AD01000832490143324A1160704770B5F7
:101BB000002100230F22C4781CB32E4C246804F4A7
:101BC000E064C4F5E064C4F30721C1F10404E3B2A6
:101BD0000A4144789C40E1B28478144021430C07C8
:101BE000210E254C05786155047804F01F05012469
:101BF000AC4005786D11AD0005F1E025C5F8004158
:101C000009E0047804F01F050124AC401B4D067860
:101C1000761145F8264070BD194A0A400243154B1B
:101C20001B1F1A60704739B1124A121D1268024315
:101C3000104B1B1D1A6006E00E4A121D12688243EB
:101C40000C4B1B1D1A607047042808D14FF0E0218F
:101C5000096941F004014FF0E022116107E04FF003
:101C6000E021096921F004014FF0E0221161704781
:101C70000000FA050CED00E000E400E080E100E087
:101C800080FFFF1F10B50121C80501F01FFD0021D5
:101C90004FF4000001F01AFD10BD70B500210022C4
:101CA00000230024E14D2D68E14E3540DF4E3560C4
:101CB00035462D6806683543DC4E356035466D6B1C
:101CC00025F00705756335466D6B46683543D74E7D
:101CD0007563456835B9C5682902058A2A04057DFA
:101CE0002B0621E04568012D05D1C5682902058A2A
:101CF0002A04002318E04568022D05D1C568690152
:101D00000569EA0200230FE04568032D06D1C56886
:101D100069010569AA024569EB0305E0C568290167
:101D200005692A0245692B0341EA020586683543A5
:101D30001D43BE4EB66B3543BC4EB5638569F56336
:101D400035462D6C6FF30D05356435462D6CC6692F
:101D50003543B64E3564858C2C0435466D6C05F0E4
:101D60004045756435466D6C066A26433543AF4E73
:101D7000756470BD002101604160C16081600161D6
:101D800041618161C161016241627047A748006899
:101D900040F00100A54908607047A448006840F081
:101DA0000400A2490860704730B1A049096841F0B9
:101DB00002019E4A116005E09C49096821F0020178
:101DC0009A4A11607047F0B50021002200230024D8
:101DD00000250026DFF854C20768CCF80C7067466F
:101DE0003F696FF30D07CCF8107067463F69D0F874
:101DF00004C047EA0C07DFF834C2CCF8107067461D
:101E0000FF69DFF830C207EA0C07DFF820C2CCF820
:101E10001C70C768390107693A02878A3B04077E4C
:101E20003C066746D7F81CC087680F4317431F431B
:101E300027434CEA070C7D4FC7F81CC03F6A07F0E8
:101E40007F47DFF8E8C1CCF82070076A3D02878C35
:101E50003E046746D7F820C0C7692F4337434CEA92
:101E6000070C724FC7F820C0DFF8C0C1876ACCF8F2
:101E70002C70F0BD0021016041608160C160016192
:101E800041618161C1610162416281627047F0B567
:101E9000002100220023002400250026DFF88CC149
:101EA0000768CCF814706746BF696FF30D07CCF86C
:101EB00018706746BF69D0F804C047EA0C07DFF81E
:101EC0006CC1CCF8187067467F6ADFF868C107EA12
:101ED0000C07DFF858C1CCF82470C76839010769CE
:101EE0003A02878A3B04077E3C066746D7F824C03F
:101EF00087680F4317431F4327434CEA070C4B4F98
:101F0000C7F824C0BF6A07F07F47DFF820C1CCF8CC
:101F10002870076A3D02878C3E046746D7F828C0C0
:101F2000C7692F4337434CEA070C404FC7F828C016
:101F3000DFF8F8C0876ACCF83070F0BD002101608E
:101F400041608160C160016141618161C161016283
:101F500041628162704730B13449C96941F0200162
:101F6000324AD16105E03149C96921F020012F4A87
:101F7000D161704730B12D49496A41F020012B4AA7
:101F8000516205E02949496A21F02001274A51623E
:101F9000704710B579B1254BDB6C4FF60174A34344
:101FA000224CE36402022346DB6C42F0010423432B
:101FB0001E4CE36405E01D4BDB6C23F001031B4C5E
:101FC000E36410BD19498864704729B1174A126843
:101FD0000243164B1A6004E0144A12688243134B02
:101FE0001A60704701460020104A52680A400AB140
:101FF000012000E0002070470C49886070470146CE
:1020000000200A0A094B5B6813400BB1012000E075
:102010000020064B1B680B4013B108B1012000E003
:1020200000207047000A01498860704700B00240F4
:10203000FCE0FCFFC000FC0030B943F2DB02810091
:10204000A1F1C0410A6005E043F2D2028100A1F192
:10205000C0410A606FF07042411C8900A1F1C0418B
:102060000A608100A1F1C041C1F80421704700213C
:10207000D0E901231A43C3681A4303691A43436929
:102080001A4383691A43C3691A43036A1A43436AAA
:102090001A43836A1A43C36A1A43036B1A43436B96
:1020A0001A4303689B00A3F1C0431A608268082AA0
:1020B0000BD102689200A2F1C042126842F04003C4
:1020C00002689200A2F1C0421360426BB2F5801F19
:1020D00019D10268BAB14FF02042526822F470015F
:1020E0004FF020421268436B1A434FF020431A60AE
:1020F0001A46126842F480721A60826B128A521E6B
:1021000041EA02525A60826B1268836B5B6842EA52
:102110000312836B9B6842EA0322836B9B8942EA2A
:102120000342836B1B8A42EA0352836B1B7D42EAA4
:102130000362836B9B691A4303685B1C9B00A3F1DA
:10214000C0431A60826AB2F5804F1BD1C26B12681D
:10215000C36B5B6842EA0312C36B9B6842EA0322CB
:10216000C36B1B8A42EA0352C36B1B7D42EA0362C4
:10217000C36B9B691A4303689B00A3F1C043C3F878
:10218000042107E06FF0704302689200A2F1C042A0
:10219000C2F8043170470021016002214160002132
:1021A00081601021C16000210161C16241618161D2
:1021B000C1614FF480510162490041620021816296
:1021C000016341630F21826B1160826B5160FF21BB
:1021D000826B91600F21826BD160826B1161826B87
:1021E00051610021826B91610F21C26B1160C26B42
:1021F0005160FF21C26B91600F21C26BD160C26B35
:102200001161C26B51610021C26B9161704751B184
:102210008200A2F1C042126842F001038200A2F1E2
:10222000C042136009E08200A2F1C0421268FE4B76
:102230001A408300A3F1C0431A60704710280AD1E6
:1022400018214FF020421166402151664FF0FC31B9
:102250009166D16610E01821F44A116040214FF0D8
:102260002042C2F884104FF0FC31F04A083211606D
:102270004FF02042C2F88C10704730B50021002288
:102280000023446844F0080485682C43C5682C4347
:1022900005692C43456944EA4524856944EA45318A
:1022A000C4692468C5696D6844EA0524C5692D8937
:1022B00044EA0544C5692D7B44EA0562046A246842
:1022C000056A6D6844EA0524056A2D8944EA0544D7
:1022D000056A2D7B44EA05630468102C05D14FF094
:1022E00020442166A266E36608E0D04C21604FF0EE
:1022F0002044C4F88820CD4C0C34236030BD10211C
:10230000016000214160102181600021C1600161F4
:1023100041618161FC21C2691160C2695160C26979
:102320009160C269D160026A1160026A5160026AFA
:102330009160026AD160704799B1102808D14FF0BE
:102340002042126E42F004024FF020431A661DE054
:10235000B64A126842F004024FF02043C3F88020CE
:1023600014E0102809D14FF02042126EAE4BDB1E54
:102370001A404FF020431A6608E0AC4A1268AA4B94
:10238000DB1E1A404FF02043C3F88020704799B1FC
:10239000102808D14FF02042126E42F040024FF058
:1023A00020431A661DE0A14A126842F040024FF035
:1023B0002043C3F8802014E0102809D14FF02042B8
:1023C000126E994B3F3B1A404FF020431A6608E0CB
:1023D000964A1268944B3F3B1A404FF02043C3F893
:1023E0008020704701460020102903D14FF0204281
:1023F000506F02E08D4A14321068704718208B49E4
:102400002031086000200906C1F8A4004FF0FC301C
:10241000864928310860091D0860091D0860704759
:10242000016841F01001426841EA4221826841EAB4
:1024300042317E4A20321160C1680968C268526820
:1024400041EA0221C268128941EA0241C268127B54
:1024500041EA0261754A283211600169096802691E
:10246000526841EA02210269128941EA0241026985
:10247000127B41EA02616D4A2C32116041690968A0
:102480004269526841EA02214269128941EA0241E5
:102490004269127B41EA02614FF02042C2F8B0105B
:1024A00070470021016041608160FC21C2681160B9
:1024B000C2685160C2689160C268D16002691160EF
:1024C00002695160026991600269D16042691160DC
:1024D00042695160426991604269D160704748B178
:1024E00052492031096841F004014FF02042C2F8FE
:1024F000A01009E04D49203109684B4AD21E114015
:102500004FF02042C2F8A01070474FF4347281009F
:10251000A1F1C041C1F840216FF070424349C83178
:1025200041F820200021414AD03211605206C2F801
:1025300054113E4AD8321160704770B50021002214
:1025400000230024D0E901563543C66835430669A7
:1025500035434669354386693543C6693543066A5E
:102560003543466A45EA0601056835B90568AD0098
:10257000A5F1C045C5F840110EE0D0E90756354336
:10258000466A45EA0603294DC0352B600568AD0053
:10259000A5F1C045C5F84011056835BB856A2D68B1
:1025A0006D1E866A7668761E45EA0616856AAD68EF
:1025B0006D1E46EA0526856AED686D1E46EA0536FB
:1025C000856A2D8A6D1E46EA0546856AAD8A6D1EAE
:1025D00046EA0556856A2D7E6D1E46EA0562134D54
:1025E000C835066845F8262025E0856A2D686D1EE9
:1025F000866A7668761E45EA0616856AAD686D1E9F
:1026000046EA0526856A2D8A6D1E46EA0542856AD8
:10261000ED686D1E2E03856AAD8A6D1E46EA05546F
:10262000024DC8352C6003E0FEFF0F00800000A0C3
:10263000066845F8262070BD002101604160816078
:102640001021C160402101618021416189008161C7
:102650000021C161016241621021826A1160826AB7
:102660005160826A9160826AD160826A1161826A75
:102670005161826A916170470021D0E900231A43B9
:1026800083685B1E42EA4312C36842EA4321A44ABC
:10269000116070470146002029B9A14A083212682A
:1026A00002F0060005E09E4A0832126802F01802A5
:1026B000900870479A49091D096841EA40014FF0A6
:1026C0002042C2F8541170479549096841EA401107
:1026D0004FF02042C2F85011704761B18200A2F160
:1026E000C042D2F8402142F400738200A2F1C042FD
:1026F000C2F840310CE08200A2F1C042D2F8402181
:1027000047F6FF531A408300A3F1C043C3F84021AA
:10271000704710B552B3102807D14FF020435B6EBD
:102720000B434FF0204463664AE0B0F5807F08D148
:102730007B4BCC3B1B680B434FF02044C4F88430E8
:102740003EE0B0F5805F08D1754BAC3B1B680B4396
:102750004FF02044C4F8A43032E0714B1B1D1B68BD
:102760000B434FF02044C4F8543129E0102807D11E
:102770004FF020435B6E8B434FF0204463661FE0B5
:10278000B0F5807F08D1664BCC3B1B688B434FF084
:102790002044C4F8843013E0B0F5805F08D1604B6A
:1027A000AC3B1B688B434FF02044C4F8A43007E0D7
:1027B0005B4B1B1D1B688B434FF02044C4F8543106
:1027C00010BD10B5024600200023102A03D14FF09F
:1027D0002044636E10E0B2F5807F03D1504CCC3CB6
:1027E000236809E0B2F5805F03D14D4CAC3C23680F
:1027F00002E04B4C0834236803EA01048C4201D008
:10280000002000E0012010BD102807D14FF0204229
:10281000526E8A434FF020435A661FE0B0F5807F26
:1028200008D13F4ACC3A12688A434FF02043C3F89C
:10283000842013E0B0F5805F08D1394AAC3A1268C1
:102840008A434FF02043C3F8A42007E0344A121D06
:1028500012688A434FF02043C3F854217047F0B503
:10286000024600200023002400250026102A03D160
:102870004FF020477B6E13E0B2F5807F03D1284FE5
:10288000CC3F3B680CE0B2F5805F03D1244FAC3FF6
:102890003B6805E0224F3F1D3B68FF06D7F85841D3
:1028A00003EA01060AB1012A02D104F0010501E0A0
:1028B00003EAD10515B10EB1012000E00020F0BD02
:1028C000102808D14FF02042526E22EAD1024FF078
:1028D00020435A6622E0B0F5807F09D1104ACC3AF5
:1028E000126822EAD1024FF02043C3F8842015E099
:1028F000B0F5805F09D10A4AAC3A126822EAD102E7
:102900004FF02043C3F8A42008E0054A121D1268C6
:1029100042F001024FF02043C3F8542170470000F9
:10292000500100A010B504469848844208D1012106
:10293000084600F0CBFE0021012000F0C7FE76E043
:102940009348844208D10121022000F0BFFE0021FB
:10295000022000F0BBFE6AE08E48844208D10121CB
:10296000042000F0B3FE0021042000F0AFFE5EE082
:102970008948844208D10121082000F0A7FE0021E7
:10298000082000F0A3FE52E08448844208D10121CF
:10299000102000F09BFE0021102000F097FE46E082
:1029A0007F48844208D10121202000F08FFE0021C1
:1029B000202000F08BFE3AE07A48844208D10121C1
:1029C000402000F083FE0021402000F07FFE2EE03A
:1029D0007548844208D10121802000F077FE002153
:1029E000802000F073FE22E07048844208D101216B
:1029F000801500F06BFE0021A01500F067FE16E0C8
:102A00006B48844208D10121401500F05FFE00218F
:102A1000601500F05BFE0AE06648844207D10121A0
:102A2000001500F053FE0021201500F04FFE10BDF0
:102A3000F0B50A4600210023002400BF3DE0012537
:102A400005FA01F3156805EA03049C4234D10568D0
:102A50004F000326BE40B543056015794E00B540D2
:102A60000668354305601579012D02D01579022DD0
:102A700016D185684F000326BE40B5438560557961
:102A80004E00B540866835438560456801268E4016
:102A9000B5434560456896798E40B6B2354345608A
:102AA000C5684F000326BE40B543C560D5794E00CA
:102AB000B540C6683543C560491C1029BFD3F0BD79
:102AC0004FF6FF7101600021017141718171C17187
:102AD000704708B54FF480320092009A0A43009282
:102AE000009AC261C161009AC261C2690092C26962
:102AF000009208BD0246002013690B400BB1012073
:102B000000E0002070470146086980B27047024625
:102B1000002053690B400BB1012000E000207047FA
:102B20000146486980B2704701837047418370470E
:102B30000AB1018300E041837047416170474269F7
:102B40004A4042617047F0B5002300244D07ED0E66
:102B500002FA05F3CE1000F1200555F826504E0775
:102B6000F70E0F26BE40B543CF1000F1200646F801
:102B70002750CE1000F1200555F8265045EA0304F1
:102B8000CE1000F1200545F82640F0BD00000240BF
:102B90000004024000080240000C02400010024005
:102BA0000014024000180240001C024000200240B5
:102BB000002402400028024010B50121880600F0E0
:102BC000C9FD00214FF0806000F0C4FD10BDF0B5DC
:102BD000002100220023002400250026FE4F3F682C
:102BE000DFF8F8C307EA0C07DFF8ECC3CCF8007095
:102BF000078A390467463F68D0F814C04CEA010CD4
:102C000047EA0C07DFF8D0C3CCF800700CF10407DA
:102C10003F68DFF8C8C307EA0C07DFF8BCC30CF154
:102C2000040CCCF80070078B3A0467463F68D0F874
:102C30001CC04CEA020C47EA0C07DFF89CC30CF1FD
:102C4000040CCCF800700CF104073F68DFF88CC36B
:102C500007EA0C07DFF880C30CF1080CCCF8007011
:102C6000078C3B0467463F68D0F824C04CEA030C4D
:102C700047EA0C07DFF860C30CF1080CCCF80070D1
:102C80000CF104073F68DFF854C307EA0C07DFF8CC
:102C900048C30CF10C0CCCF80070078D3C0467465F
:102CA000D7F800C0C76A27434CEA070CCA4F0C3755
:102CB000C7F800C03F1D3F68DFF824C307EA0C07D0
:102CC000DFF814C30CF1100CCCF80070D0E9007CD4
:102CD00047EA0C07D0F808C047EA0C07D0F80CC048
:102CE00047EA0C07DFF8F0C20CF1100CDCF800C06A
:102CF00047EA0C07DFF8E0C20CF1100CCCF80070CA
:102D0000476B3D02078E3E04B34F24373F6807F000
:102D10007F47DFF8C4C20CF1240CCCF8007046EAFF
:102D20000507D0F838C047EA0C07DFF8ACC20CF151
:102D3000240CDCF800C047EA0C07DFF89CC20CF159
:102D4000240CCCF80070F0BD00210160416081606E
:102D5000C160016141618161C16101624162816261
:102D6000C162016341638163704740B19A49103188
:102D7000096841F00101984A1032116007E0964954
:102D80001031096821F00101934A10321160704737
:102D900040B191491031096841F480318E4A1032B6
:102DA000116007E08C491031096821F480318A4AAA
:102DB0001032116070470EB5874910310968884A92
:102DC0001140854A1032116011460968C1F30211A1
:102DD000009111460968C1F3022101911146096869
:102DE000C1F3023102919DE80E0080E80E000EBD95
:102DF0000221016041608160704777493831086085
:102E0000704775491C31086070472DE9F041002476
:102E100000250026002200270023B1F804C04FEA55
:102E20000C44D0F804C00CF4704CC0F804C0D1F8C5
:102E300000C04CEA040CC0F804C0B1F80CC04FEA62
:102E40000C45D0F808C00CF4704CC0F808C0D1F89C
:102E500008C04CEA050CC0F808C0D0F810C02CF02F
:102E6000070CC0F810C0D1F810C0C0F810C0D1F8DD
:102E70001CC04FEA0C26B1F820C04FEA0C4291F872
:102E800024C04FEA0C67D0F818C09C46C0F818C0A0
:102E9000D1F818C04CEA060C4CEA020C4CEA070CBC
:102EA000C0F818C0D0F814C02CF0FF0CC0F814C043
:102EB000D1F814C0C0F814C0D0F81CC040F2077894
:102EC0002CEA080CC0F81CC0D1E90AC84CEA080C6E
:102ED000C0F81CC0D0F828C09C46C0F828C0D1F863
:102EE00030C0C0F828C0B1F838C04FEA0C43D0F861
:102EF0002CC00CF0E02CC0F82CC0D1F834C04CEA47
:102F0000030CC0F82CC0D0F830C06FF30A0CC0F826
:102F100030C0D1F83CC0C0F830C0BDE8F08100211D
:102F2000016041608160C1600161FF214161002158
:102F30008161C161016241624FF4C0618162072118
:102F4000C1620021016341638163C163704721B1A4
:102F5000026842F00102026003E0026822F001020E
:102F6000026070470CB51C493C31096800211A4ABF
:102F70003C32116011460968090C0091114609683C
:102F800089B20191DDE90012C0E900120CBD0021F7
:102F900001604160704701460F4A403212680A40A2
:102FA0000AB1012000E00020704770B50023002422
:102FB000C2B1056845F0020505604D682B020D8918
:102FC0002C04C56805F07F45C560C6680D681D43C3
:102FD00025432E43C66009E00868014000F800F070
:102FE0008F88FE0F056825F0020505600125934EC8
:102FF000356070BD0021016041608160704721B182
:10300000026842F01002026003E0026822F010023F
:1030100002600122894B1A60704730B500220023FC
:1030200000248D682A028D892B040D782C064D68AA
:10303000254315431D43056430BD002101604160F7
:103040008160C16070472DE9F0410B461446D0F80D
:10305000048008F47048C0F80480D0F8088008F4B0
:103060007048C0F80880DFF8D481A8F11808D8F8B3
:1030700000104FF0010808EB114808EB03051FFA98
:1030800081F808F1010808EB0406016909B9042276
:103090000EE0012901D103220AE0042905D002290A
:1030A00003D0032901D0072901D1022200E0012227
:1030B000C16AC1F30C08A8F10308B8FBF2F8A844F0
:1030C000A8F1010C016BC1F30A08B044A8F1010793
:1030D00045EA0C48C0F8048046EA0748C0F8088072
:1030E000BDE8F08141617047816270472DE9F0438E
:1030F0000B461446016909B904220EE0012901D1E9
:1031000003220AE0042905D0022903D0032901D0B3
:10311000072901D1022200E001224168C1F30C0518
:1031200003EB0508A8F101078168C1F30C0604EB65
:103130000608A8F1010C45EA0748C0F8048046EAF1
:103140000C48C0F8088003FB02F808F1030803FBF1
:1031500002F948EA0948C0F82C800463BDE8F0830E
:1031600030B50346186908B904220EE0012801D1E0
:1031700003220AE0042805D0022803D0032801D046
:10318000072801D1022200E00122DC6A200CB0FBFA
:10319000F2F009B904220EE0012901D103220AE06C
:1031A000042905D0022903D0032901D0072901D120
:1031B000022200E0012200FB02F4E41C00FB02F505
:1031C00044EA0544DC62196130BD39B11B4A103252
:1031D00012680243194B10331A6006E0174A103286
:1031E00012688243154B10331A6070470146002065
:1031F000124A143212680A400AB1012000E000208D
:1032000070470E49183108607047014600200B4A8C
:10321000143212680A400AB1012000E00020074A77
:10322000103212680A4012B108B1012000E00020FB
:103230007047024918310860704700002468014057
:10324000F648006840F00100F44908600020F349A6
:1032500008310860F1480068F1490840EF4908600A
:10326000F048091D0860F048EC4984310860ED48D9
:103270001038091D0860E948006820F48020E749FB
:1032800008600020E5490C310860E4498C31086091
:1032900070470021E14A921C117011460870704776
:1032A00010B501460022002300204A11012A02D154
:1032B000DA4C236808E0022A03D1D84C7034236822
:1032C00002E0D64C7434236801F01F0201249440BC
:1032D0001C400CB1012000E0002010BD38B50020DA
:1032E00000900024002500BF3120FFF7D9FF0546DC
:1032F0000098401C00900098B0F5A04F01D0002D20
:10330000F2D03120FFF7CCFF08B1012400E0002407
:10331000204638BD01460020C04A106820F0F80061
:1033200040EAC10010607047C04908607047002142
:10333000BA4A703211701170012802D004280AD1E3
:1033400004E00121B54A7032117005E00521B34A4D
:103350007032117000E000BF00BF7047B4490860D0
:10336000704770B5049C41EA82150126C6EB5306EE
:1033700045EA0645054345EA0465A84E361D356015
:1033800070BDAA490866704710B5830143EA01631E
:1033900043EA0273A14C8434236010BDA3498866BC
:1033A000704710B5830143EA016343EA02739B4C03
:1033B0008834236010BD9D49086770479B49C864E5
:1033C000704702460020954B0833186820F0EC60E7
:1033D00042EA01031843914B0833186070470246D4
:1033E00000208E4B0833186820F0784042EA010331
:1033F00018438A4B08331860704701460020874AFB
:103400000832106820F003000843106070478348BA
:103410000830006800F00C007047014600207F4A29
:103420000832106820F0F000084310607047014631
:1034300000207A4A0832106820F4E05008431060F7
:10344000704701460020754A0832106820F4604039
:1034500040EAC10010607047F0B50021002200244E
:103460000225002602236D4F08373F6807F00C0144
:1034700021B1042905D0082937D105E06D4F076037
:1034800036E06D4F076033E0644F3F1D3F68C7F380
:103490008056624F3F1D3F6807F03F036EB1664F95
:1034A000B7FBF3F7DFF874C10CF1040CDCF800C0D3
:1034B000CCF3881C07FB0CF40CE05E4FB7FBF3F772
:1034C000DFF858C10CF1040CDCF800C0CCF3881C08
:1034D00007FB0CF4514F3F1D3F68C7F301477F1CAA
:1034E0007D00B4FBF5F7076002E0524F076000BFB4
:1034F00000BF4A4F08373F6807F0F00109094F4FF6
:103500007A5C0768D7404760444F08373F6807F444
:10351000E051890A494F7A5C4768D74087603F4F3E
:1035200008373F6807F46041490B444F7A5C4768AD
:10353000D740C760F0BD002100F44072B2F5407F73
:103540000AD1364A0832116821F4F8113C4A024087
:103550001143324A08321160304A70321268C0F3A7
:103560000B031A432D4B70331A60704730494439AE
:10357000086070472E49403908607047314908603B
:10358000704701460020254A8C32106820F01F0049
:103590004A1E1043214A8C321060704701460020B9
:1035A0001E4A8C32106820F4F8504A1E40EA02206D
:1035B0001A4A8C321060704701460020174A8C323C
:1035C000106820F440100843106070470146002046
:1035D000124A8C32106820F4400008431060704793
:1035E000014600200D4A8C32106820F44030084318
:1035F0001060704714490860704739B1074A30328B
:1036000012680243054B30331A6006E0034A303239
:1036100012688243014B30331A6070470038024011
:10362000FFFFF6EA1030002400300020000047427F
:10363000800E47420024F40040787D01780100208C
:10364000FFFCFF0F5C014742E011474229B1894A64
:1036500012680243874B1A6004E0864A126882436C
:10366000844B1A60704739B1824A121D12680243B6
:10367000804B1B1D1A6006E07E4A121D12688243B1
:103680007C4B1B1D1A60704739B17A4A0C321268A4
:103690000243784B0C331A6006E0764A0C3212680B
:1036A0008243744B0C331A60704739B1714A10323F
:1036B000126802436F4B10331A6006E06D4A1032F5
:1036C000126882436B4B10331A60704739B1694AF4
:1036D000243A12680243674B243B1A6006E0654AAD
:1036E000243A12688243634B243B1A60704739B115
:1036F000604A203A126802435E4B203B1A6006E0A3
:103700005C4A203A126882435A4B203B1A60704749
:1037100039B1584A1C3A12680243564B1C3B1A6096
:1037200006E0544A1C3A12688243524B1C3B1A6012
:10373000704739B14F4A143A126802434D4B143B5B
:103740001A6006E04B4A143A12688243494B143B14
:103750001A60704739B1474A103A12680243454B24
:10376000103B1A6006E0434A103A12688243414B0C
:10377000103B1A60704739B13E4A1C32126802434E
:103780003C4B1C331A6006E03A4A1C3212688243F2
:10379000384B1C331A60704739B1364A20321268F0
:1037A0000243344B20331A6006E0324A203212685A
:1037B0008243304B20331A60704739B12D4A24328E
:1037C000126802432B4B24331A6006E0294A243244
:1037D00012688243274B24331A60704739B1254A57
:1037E0002C3212680243234B2C331A6006E0214A24
:1037F0002C32126882431F4B2C331A60704739B148
:103800001C4A3032126802431A4B30331A6006E009
:10381000184A303212688243164B30331A607047B0
:1038200039B1144A273A12780243124B273B1A70D7
:1038300006E0104A273A127882430E4B273B1A7053
:1038400070470C484030006840F0807009494031B2
:103850000860704701460020064A283A12680A406C
:103860000AB1012000E000207047024926390870A3
:10387000704700003438024010B50446F6488442D0
:1038800008D101218014FFF765FF0021A014FFF784
:1038900061FF3CE0F148844208D101210014FFF7A8
:1038A00048FF00212014FFF744FF30E0EC48844239
:1038B00008D10121C013FFF73CFF0021E013FFF7FF
:1038C00038FF24E0E748844208D101214014FFF783
:1038D00041FF00216014FFF73DFF18E0E2488442F9
:1038E00009D101210805FFF735FF00214FF48010B1
:1038F000FFF730FF0BE0DD48844208D10121480585
:10390000FFF728FF00214FF40010FFF723FF10BD41
:1039100010B50022028802F441520B884C882343E0
:103920008C882343CC8823430C8923434C8923432D
:103930008C892343CC8923431A430280838B4FF223
:10394000FF74234083830B8A038210BD2DE9F04F5F
:1039500000250223002401270022002694469046D9
:103960009146B0F81CA04FF2400B0AEA0B0AA0F8EF
:103970001CA04FF0020AA0F820A0858BD1F808A067
:10398000BAF1020F01D100BF6CE0B1F804A0BAF1A6
:10399000000F01D1012700E00227DFF8D4A2DAF8F6
:1039A00000A00AF4000ABAF1000F09D0DFF8C0A2A3
:1039B000DAF800A02AF4000ADFF8B4B2CBF800A0CD
:1039C000DFF8ACA20AF17C0ADAF800A0CAF3881882
:1039D000DFF89CA20AF17C0ADAF800A0CAF30279A7
:1039E000DFF88CA2AAF1040ADAF800A00AF03F0C72
:1039F000DFF880A2BAFBFCFA0AFB08FABAFBF9F678
:103A0000B1F806A0BAF5007F0ED14FEA162A0AEBEC
:103A10008A0A4FEA4A0AD1F808B0BAFBFBFA0AF15F
:103A2000050A1FFA8AF20FE04FEA471AB6FBFAFAC4
:103A30000AEB8A0A4FEA4A0AD1F808B0BAFBFBFA45
:103A40000AF1050A1FFA8AF24FF00A0AB2FBFAF2EB
:103A500002F00104A2EB040ACAF34F034FF6FF7A07
:103A60000AEA0424022B01DBFF2B01DD02230024E0
:103A7000B1F806A04AEA040A4AEA030AA0F820A01C
:103A8000B1F804A0B1F80CB04AEA0B0AB1F802B0E0
:103A90004AEA0B0AB1F800B04AEA0B0A4AF4006A93
:103AA0004AEA05058583BDE8F08F00210180418049
:103AB0008180C180018141818181C1810721018291
:103AC00070470021018041808180C1800221816096
:103AD00000218181704721B1028842F040020280BA
:103AE00004E002884FF6BF731A400280704721B18C
:103AF000828B42F48062828304E0828B4FF6FF3334
:103B00001A408283704702884FF2FF731A40028086
:103B100002880A4302807047B1F5804F04D10288C1
:103B200042F48042028004E002884BF6FF731A40A0
:103B3000028070474FF6FF62914204D0028842F43F
:103B40008072028004E002884FF6FF631A40028010
:103B5000704721B1828842F00402828004E08288AA
:103B60004FF6FB731A408280704721B1828842F081
:103B70001002828004E082884FF6EF731A40828040
:103B8000704730B500220023848B4FF240052C4053
:103B9000848302240484828B0C88B4F5007F01D0D6
:103BA0000C8814B94FF4807308E00C88B4F5407F9A
:103BB00003D00C88B4F5807F00D100238C888D89D8
:103BC0002C434D882C431C4344F4006422438283DD
:103BD00030BD0146888970478181704721B10288D4
:103BE00042F40052028004E002884DF6FF731A404E
:103BF00002807047018841F480510180704702467D
:103C00000020012901D0108B00E0908A7047014606
:103C1000088A70471AB183880B43838002E0838847
:103C20008B438380704730B5002400230C1101259D
:103C3000A540ABB21AB185881D43858002E0858816
:103C40009D43858030BD0246002013890B400BB197
:103C5000012000E0002070470030014000380040A3
:103C6000003C00400034014000500140005401403D
:103C70000838024040787D01CA4302817047F0B5A0
:103C80000246002000240023002501F00F07012632
:103C9000BE40B4B20B1101269E40B3B2968806EA2C
:103CA00003051689264016B10DB1012000E0002061
:103CB000F0BD10B5002201F00F040123A3409AB219
:103CC000D343038110BD0000064C074D06E0E068B9
:103CD00040F0010394E8070098471034AC42F6D353
:103CE000FCF768FA88BF0208A8BF020870B58C18F4
:103CF00010F8015B15F0070301D110F8013B2A1100
:103D000006D110F8012B03E010F8016B01F8016BEC
:103D10005B1EF9D12B0705D40023521E0DD401F8E8
:103D2000013BFAE710F8013BCB1A921C03E013F8B1
:103D3000015B01F8015B521EF9D5A142D8D30020E6
:103D400070BD0000014A024900F013B8953D00081B
:103D50008801002002E008C8121F08C1002AFAD119
:103D600070477047002001E001C1121F002AFBD1FB
:103D700070472DE9F04116460F460446002503E042
:103D80003946B047641C6D1C20780028F8D12846BD
:103D9000BDE8F08138B504468DF80000694603207F
:103DA000ABBE204638BD000028D2EFC3AEC3AEC3C1
:103DB000AEC3AEC3AEC3AEC3AEC3AEC3AEC3AEC37B
:103DC000AEC3AEC3AEC3AEC3AEC3AEC3AEC3AEC36B
:103DD000AEC3AEC3AEC3AEC3AEC3AEC3AEC3AEC35B
:103DE000AFC3CDC3E0CB00CC00CC00CC00CC00CC2A
:103DF00000CC00CC00CC00CC00CC00CC00CC00CC63
:103E000000CC00CC00CC00CC00CC00CC00CC00CC52
:103E100000CC00CC00CC00CC00CC00CC00CC00D43A
:103E200029649324912C912C912C912C912C912CE0
:103E3000912C912C912C912C912C912C912C912C9A
:103E4000912C912C912C912C912C912C912C912C8A
:103E5000912C912C912C912C922C912CC034C0340B
:103E6000C034C034C034C034C034C034C034C034B2
:103E7000C034C034C034C034C034C034C034C034A2
:103E8000C034C034C034C034C034C034C034C03492
:103E9000C034C034E02CA03C13E015F015F015F050
:103EA00015F015F015F015F015F015F015F015F0EA
:103EB00015F015F015F015F015F015F015F015F0DA
:103EC00015F015F015F015F015F015F015F015F0CA
:103ED00015F014F000F800F800F800F800F800F809
:103EE00000F800F800F800F800F800F800F800F812
:103EF00000F800F800F800F800F800F800F800F802
:103F000000F800F800F800F800F800F800F800F8F1
:103F10004F90795078587858785878587858785819
:103F20007858785878587858785878587858785811
:103F30007858785878587858785878587858785801
:103F4000785878587858785878587858A660A26089
:103F5000A260A260A260A260A260A260A260A26051
:103F6000A260A260A260A260A260A260A260A26041
:103F7000A260A260A260A260A260A260A260A26031
:103F8000A260A260A258C388F3F4FFFFFFFFFFFF07
:103F9000FFFFFFFFFFFFFFFFFFFFFFFFFFFFFFFF31
:103FA000FFFFFFFFFFFFFFFFFFFFFFFFFFFFFFFF21
:103FB000FFFFFFFFFFFFFFFFFFFFFFFFFFFFFFFF11
:103FC000FFFFFFFFA4FFC2FFC3FFC3FFC3FFC3FF89
:103FD000C3FFC3FFC3FFC3FFC3FFC3FFC3FFC3FFD1
:103FE000C3FFC3FFC3FFC3FFC3FFC3FFC3FFC3FFC1
:103FF000C3FFC3FFC3FFC3FFC3FFC3FFC3FFC3FFB1
:1040000074879F2F9D379D379D379D379D379D37EF
:104010009D379D379D379D379D379D379D379D3700
:104020009D379D379D379D379D379D379D379D37F0
:104030009D379D379D379D377E379D3F222F4137D6
:1040400041374137413741374137413741374137B0
:1040500041374137413741374137413741374137A0
:104060004137413741374137413741374137413790
:1040700041374137602F234739F01CF83CF83CF8B2
:104080003CF83CF83CF83CF83CF83CF83CF83CF890
:104090003CF83CF83CF83CF83CF83CF83CF83CF880
:1040A0003CF83CF83CF83CF83CF83CF83CF83CF870
:1040B0003CF85BF800F800F800F800F800F800F8A9
:1040C00000F800F800F800F800F800F800F800F830
:1040D00000F800F800F800F800F800F800F800F820
:1040E00000F800F800F800F800F800F800F800F810
:1040F00010601B0819181918191819181918191807
:104100001918191819181918191819181918191827
:104110001918191819181918191819181918191817
:1041200019181918191819181A1819180310001045
:1041300000100010001000100010001000100010FF
:1041400000100010001000100010001000100010EF
:1041500000100010001000100010001000100010DF
:104160000010001000088250D3ECFFFFFFFFFFFF9C
:10417000FFFFFFFFFFFFFFFFFFFFFFFFFFFFFFFF4F
:10418000FFFFFFFFFFFFFFFFFFFFFFFFFFFFFFFF3F
:10419000FFFFFFFFFFFFFFFFFFFFFFFFFFFFFFFF2F
:1041A000FFFFFFFFE0FFE0FFE0FFE0FFE0FFE0FFD9
:1041B000E0FFE0FFE0FFE0FFE0FFE0FFE0FFE0FF07
:1041C000E0FFE0FFE0FFE0FFE0FFE0FFE0FFE0FFF7
:1041D000E0FFE0FFE0FFE0FFE0FFE0FFE0FFE0FFE7
:1041E000D457FF07FF07FF07FF07FF07FF07FF077A
:1041F000FF07FF07FF07FF07FF07FF07FF07FF078F
:10420000FF07FF07FF07FF07FF07FF07FF07FF077E
:10421000FF07FF07FF07FF07FF07FE07E007E007AD
:10422000E007E007E007E007E007E007E007E00756
:10423000E007E007E007E007E007E007E007E00746
:10424000E007E007E007E007E007E007E007E00736
:10425000E007E007E007E20F3DE81FF81FF81FF84E
:104260001FF81FF81FF81FF81FF81FF81FF81FF896
:104270001FF81FF81FF81FF81FF81FF81FF81FF886
:104280001FF81FF81FF81FF81FF81FF81FF81FF876
:104290001FF83FF800F000F800F800F800F800F808
:1042A00000F800F800F800F800F800F800F800F84E
:1042B00000F800F800F800F800F800F800F800F83E
:1042C00000F800F800F800F800F800F800F800F82E
:1042D00034501F001F001F001F001F001F001F0081
:1042E0001F001F001F001F001F001F001F001F00D6
:1042F0001F001F001F001F001F001F001F001F00C6
:104300001F001F001F001F001F001F0005000000EE
:10431000000000000000000000000000000000009D
:10432000000000000000000000000000000000008D
:10433000000000000000000000000000000000007D
:10434000000000000000A240D3ECFFFFFFFFFFFFD2
:10435000FFFFFFFFFFFFFFFFFFFFFFFFFFFFFFFF6D
:10436000FFFFFFFFFFFFFFFFFFFFFFFFFFFFFFFF5D
:10437000FFFFFFFFFFFFFFFFFFFFFFFFFFFFFFFF4D
:10438000FFFFFEFFC0FFE0FFE0FFE0FFE0FFE0FF18
:10439000E0FFE0FFE0FFE0FFE0FFE0FFE0FFE0FF25
:1043A000E0FFE0FFE0FFE0FFE0FFE0FFE0FFE0FF15
:1043B000E0FFE0FFE0FFE0FFE0FFE0FFE0FFE0FF05
:1043C000B457FF07FF07FF07FF07FF07FF07FF07B8
:1043D000FF07FF07FF07FF07FF07FF07FF07FF07AD
:1043E000FF07FF07FF07FF07FF07FF07FF07FF079D
:1043F000FF07FF07FF07FF07FF07FE07C007E007EC
:10440000E007E007E007E007E007E007E007E00774
:10441000E007E007E007E007E007E007E007E00764
:10442000E007E007E007E007E007E007E007E00754
:10443000E007E007E007C2173DE81FF81FF81FF884
:104440001FF81FF81FF81FF81FF81FF81FF81FF8B4
:104450001FF81FF81FF81FF81FF81FF81FF81FF8A4
:104460001FF81FF81FF81FF81FF81FF81FF81FF894
:104470001FF83EF800F000F800F800F800F800F827
:1044800000F800F800F800F800F800F800F800F86C
:1044900000F800F800F800F800F800F800F800F85C
:1044A00000F800F800F800F800F800F800F800F84C
:1044B00034501F001F001F001F001F001F001F009F
:1044C0001F001F001F001F001F001F001F001F00F4
:1044D0001F001F001F001F001F001F001F001F00E4
:1044E0001F001F001F001F001F001F00050000000D
:1044F00000000000000000000000000000000000BC
:1045000000000000000000000000000000000000AB
:10451000000000000000000000000000000000009B
:10452000000000000000A240D3ECFFFFFFFFFFFFF0
:10453000FFFFFFFFFFFFFFFFFFFFFFFFFFFFFFFF8B
:10454000FFFFFFFFFFFFFFFFFFFFFFFFFFFFFFFF7B
:10455000FFFFFFFFFFFFFFFFFFFFFFFFFFFFFFFF6B
:10456000FFFFFEFFC0FFE0FFE0FFE0FFE0FFE0FF36
:10457000E0FFE0FFE0FFE0FFE0FFE0FFE0FFE0FF43
:10458000E0FFE0FFE0FFE0FFE0FFE0FFE0FFE0FF33
:10459000E0FFE0FFE0FFE0FFE0FFE0FFE0FFE0FF23
:1045A000B457FF07FF07FF07FF07FF07FF07FF07D6
:1045B000FF07FF07FF07FF07FF07FF07FF07FF07CB
:1045C000FF07FF07FF07FF07FF07FF07FF07FF07BB
:1045D000FF07FF07FF07FF07FF07FE07C007E0070A
:1045E000E007E007E007E007E007E007E007E00793
:1045F000E007E007E007E007E007E007E007E00783
:10460000E007E007E007E007E007E007E007E00772
:10461000E007E007E007C2173DE81FF81FF81FF8A2
:104620001FF81FF81FF81FF81FF81FF81FF81FF8D2
:104630001FF81FF81FF81FF81FF81FF81FF81FF8C2
:104640001FF81FF81FF81FF81FF81FF81FF81FF8B2
:104650001FF83EF800F000F800F800F800F800F845
:1046600000F800F800F800F800F800F800F800F88A
:1046700000F800F800F800F800F800F800F800F87A
:1046800000F800F800F800F800F800F800F800F86A
:1046900034501F001F001F001F001F001F001F00BD
:1046A0001F001F001F001F001F001F001F001F0012
:1046B0001F001F001F001F001F001F001F001F0002
:1046C0001F001F001F001F001F001F00050000002B
:1046D00000000000000000000000000000000000DA
:1046E00000000000000000000000000000000000CA
:1046F00000000000000000000000000000000000BA
:10470000000000000000A240D3ECFFFFFFFFFFFF0E
:10471000FFFFFFFFFFFFFFFFFFFFFFFFFFFFFFFFA9
:10472000FFFFFFFFFFFFFFFFFFFFFFFFFFFFFFFF99
:10473000FFFFFFFFFFFFFFFFFFFFFFFFFFFFFFFF89
:10474000FFFFFEFFC0FFE0FFE0FFE0FFE0FFE0FF54
:10475000E0FFE0FFE0FFE0FFE0FFE0FFE0FFE0FF61
:10476000E0FFE0FFE0FFE0FFE0FFE0FFE0FFE0FF51
:10477000E0FFE0FFE0FFE0FFE0FFE0FFE0FFE0FF41
:10478000B457FF07FF07FF07FF07FF07FF07FF07F4
:10479000FF07FF07FF07FF07FF07FF07FF07FF07E9
:1047A000FF07FF07FF07FF07FF07FF07FF07FF07D9
:1047B000FF07FF07FF07FF07FF07FE07C007E00728
:1047C000E007E007E007E007E007E007E007E007B1
:1047D000E007E007E007E007E007E007E007E007A1
:1047E000E007E007E007E007E007E007E007E00791
:1047F000E007E007E007C2173DE81FF81FF81FF8C1
:104800001FF81FF81FF81FF81FF81FF81FF81FF8F0
:104810001FF81FF81FF81FF81FF81FF81FF81FF8E0
:104820001FF81FF81FF81FF81FF81FF81FF81FF8D0
:104830001FF83EF800F000F800F800F800F800F863
:1048400000F800F800F800F800F800F800F800F8A8
:1048500000F800F800F800F800F800F800F800F898
:1048600000F800F800F800F800F800F800F800F888
:1048700034501F001F001F001F001F001F001F00DB
:104880001F001F001F001F001F001F001F001F0030
:104890001F001F001F001F001F001F001F001F0020
:1048A0001F001F001F001F001F001F000500000049
:1048B00000000000000000000000000000000000F8
:1048C00000000000000000000000000000000000E8
:1048D00000000000000000000000000000000000D8
:1048E000000000000000A240D3ECFFFFFFFFFFFF2D
:1048F000FFFFFFFFFFFFFFFFFFFFFFFFFFFFFFFFC8
:10490000FFFFFFFFFFFFFFFFFFFFFFFFFFFFFFFFB7
:10491000FFFFFFFFFFFFFFFFFFFFFFFFFFFFFFFFA7
:10492000FFFFFEFFC0FFE0FFE0FFE0FFE0FFE0FF72
:10493000E0FFE0FFE0FFE0FFE0FFE0FFE0FFE0FF7F
:10494000E0FFE0FFE0FFE0FFE0FFE0FFE0FFE0FF6F
:10495000E0FFE0FFE0FFE0FFE0FFE0FFE0FFE0FF5F
:10496000B457FF07FF07FF07FF07FF07FF07FF0712
:10497000FF07FF07FF07FF07FF07FF07FF07FF0707
:10498000FF07FF07FF07FF07FF07FF07FF07FF07F7
:10499000FF07FF07FF07FF07FF07FE07C007E00746
:1049A000E007E007E007E007E007E007E007E007CF
:1049B000E007E007E007E007E007E007E007E007BF
:1049C000E007E007E007E007E007E007E007E007AF
:1049D000E007E007E007C2173DE81FF81FF81FF8DF
:1049E0001FF81FF81FF81FF81FF81FF81FF81FF80F
:1049F0001FF81FF81FF81FF81FF81FF81FF81FF8FF
:104A00001FF81FF81FF81FF81FF81FF81FF81FF8EE
:104A10001FF83EF800F000F800F800F800F800F881
:104A200000F800F800F800F800F800F800F800F8C6
:104A300000F800F800F800F800F800F800F800F8B6
:104A400000F800F800F800F800F800F800F800F8A6
:104A500034501F001F001F001F001F001F001F00F9
:104A60001F001F001F001F001F001F001F001F004E
:104A70001F001F001F001F001F001F001F001F003E
:104A80001F001F001F001F001F001F000500000067
:104A90000000000000000000000000000000000016
:104AA0000000000000000000000000000000000006
:104AB00000000000000000000000000000000000F6
:104AC000000000000000A240D3ECFFFFFFFFFFFF4B
:104AD000FFFFFFFFFFFFFFFFFFFFFFFFFFFFFFFFE6
:104AE000FFFFFFFFFFFFFFFFFFFFFFFFFFFFFFFFD6
:104AF000FFFFFFFFFFFFFFFFFFFFFFFFFFFFFFFFC6
:104B0000FFFFFEFFC0FFE0FFE0FFE0FFE0FFE0FF90
:104B1000E0FFE0FFE0FFE0FFE0FFE0FFE0FFE0FF9D
:104B2000E0FFE0FFE0FFE0FFE0FFE0FFE0FFE0FF8D
:104B3000E0FFE0FFE0FFE0FFE0FFE0FFE0FFE0FF7D
:104B4000B457FF07FF07FF07FF07FF07FF07FF0730
:104B5000FF07FF07FF07FF07FF07FF07FF07FF0725
:104B6000FF07FF07FF07FF07FF07FF07FF07FF0715
:104B7000FF07FF07FF07FF07FF07FE07C007E00764
:104B8000E007E007E007E007E007E007E007E007ED
:104B9000E007E007E007E007E007E007E007E007DD
:104BA000E007E007E007E007E007E007E007E007CD
:104BB000E007E007E007C2173DE81FF81FF81FF8FD
:104BC0001FF81FF81FF81FF81FF81FF81FF81FF82D
:104BD0001FF81FF81FF81FF81FF81FF81FF81FF81D
:104BE0001FF81FF81FF81FF81FF81FF81FF81FF80D
:104BF0001FF83EF800F000F800F800F800F800F8A0
:104C000000F800F800F800F800F800F800F800F8E4
:104C100000F800F800F800F800F800F800F800F8D4
:104C200000F800F800F800F800F800F800F800F8C4
:104C300034501F001F001F001F001F001F001F0017
:104C40001F001F001F001F001F001F001F001F006C
:104C50001F001F001F001F001F001F001F001F005C
:104C60001F001F001F001F001F001F000500000085
:104C70000000000000000000000000000000000034
:104C80000000000000000000000000000000000024
:104C90000000000000000000000000000000000014
:104CA000000000000000A240D3ECFFFFFFFFFFFF69
:104CB000FFFFFFFFFFFFFFFFFFFFFFFFFFFFFFFF04
:104CC000FFFFFFFFFFFFFFFFFFFFFFFFFFFFFFFFF4
:104CD000FFFFFFFFFFFFFFFFFFFFFFFFFFFFFFFFE4
:104CE000FFFFFEFFC0FFE0FFE0FFE0FFE0FFE0FFAF
:104CF000E0FFE0FFE0FFE0FFE0FFE0FFE0FFE0FFBC
:104D0000E0FFE0FFE0FFE0FFE0FFE0FFE0FFE0FFAB
:104D1000E0FFE0FFE0FFE0FFE0FFE0FFE0FFE0FF9B
:104D2000B457FF07FF07FF07FF07FF07FF07FF074E
:104D3000FF07FF07FF07FF07FF07FF07FF07FF0743
:104D4000FF07FF07FF07FF07FF07FF07FF07FF0733
:104D5000FF07FF07FF07FF07FF07FE07C007E00782
:104D6000E007E007E007E007E007E007E007E0070B
:104D7000E007E007E007E007E007E007E007E007FB
:104D8000E007E007E007E007E007E007E007E007EB
:104D9000E007E007E007C2173DE81FF81FF81FF81B
:104DA0001FF81FF81FF81FF81FF81FF81FF81FF84B
:104DB0001FF81FF81FF81FF81FF81FF81FF81FF83B
:104DC0001FF81FF81FF81FF81FF81FF81FF81FF82B
:104DD0001FF83EF800F000F800F800F800F800F8BE
:104DE00000F800F800F800F800F800F800F800F803
:104DF00000F800F800F800F800F800F800F800F8F3
:104E000000F800F800F800F800F800F800F800F8E2
:104E100034501F001F001F001F001F001F001F0035
:104E20001F001F001F001F001F001F001F001F008A
:104E30001F001F001F001F001F001F001F001F007A
:104E40001F001F001F001F001F001F0005000000A3
:104E50000000000000000000000000000000000052
:104E60000000000000000000000000000000000042
:104E70000000000000000000000000000000000032
:104E8000000000000000A240D3ECFFFFFFFFFFFF87
:104E9000FFFFFFFFFFFFFFFFFFFFFFFFFFFFFFFF22
:104EA000FFFFFFFFFFFFFFFFFFFFFFFFFFFFFFFF12
:104EB000FFFFFFFFFFFFFFFFFFFFFFFFFFFFFFFF02
:104EC000FFFFFEFFC0FFE0FFE0FFE0FFE0FFE0FFCD
:104ED000E0FFE0FFE0FFE0FFE0FFE0FFE0FFE0FFDA
:104EE000E0FFE0FFE0FFE0FFE0FFE0FFE0FFE0FFCA
:104EF000E0FFE0FFE0FFE0FFE0FFE0FFE0FFE0FFBA
:104F0000B457FF07FF07FF07FF07FF07FF07FF076C
:104F1000FF07FF07FF07FF07FF07FF07FF07FF0761
:104F2000FF07FF07FF07FF07FF07FF07FF07FF0751
:104F3000FF07FF07FF07FF07FF07FE07C007E007A0
:104F4000E007E007E007E007E007E007E007E00729
:104F5000E007E007E007E007E007E007E007E00719
:104F6000E007E007E007E007E007E007E007E00709
:104F7000E007E007E007C2173DE81FF81FF81FF839
:104F80001FF81FF81FF81FF81FF81FF81FF81FF869
:104F90001FF81FF81FF81FF81FF81FF81FF81FF859
:104FA0001FF81FF81FF81FF81FF81FF81FF81FF849
:104FB0001FF83EF800F000F800F800F800F800F8DC
:104FC00000F800F800F800F800F800F800F800F821
:104FD00000F800F800F800F800F800F800F800F811
:104FE00000F800F800F800F800F800F800F800F801
:104FF00034501F001F001F001F001F001F001F0054
:105000001F001F001F001F001F001F001F001F00A8
:105010001F001F001F001F001F001F001F001F0098
:105020001F001F001F001F001F001F0005000000C1
:105030000000000000000000000000000000000070
:105040000000000000000000000000000000000060
:105050000000000000000000000000000000000050
:10506000000000000000A240D3ECFFFFFFFFFFFFA5
:10507000FFFFFFFFFFFFFFFFFFFFFFFFFFFFFFFF40
:10508000FFFFFFFFFFFFFFFFFFFFFFFFFFFFFFFF30
:10509000FFFFFFFFFFFFFFFFFFFFFFFFFFFFFFFF20
:1050A000FFFFFEFFC0FFE0FFE0FFE0FFE0FFE0FFEB
:1050B000E0FFE0FFE0FFE0FFE0FFE0FFE0FFE0FFF8
:1050C000E0FFE0FFE0FFE0FFE0FFE0FFE0FFE0FFE8
:1050D000E0FFE0FFE0FFE0FFE0FFE0FFE0FFE0FFD8
:1050E000B457FF07FF07FF07FF07FF07FF07FF078B
:1050F000FF07FF07FF07FF07FF07FF07FF07FF0780
:10510000FF07FF07FF07FF07FF07FF07FF07FF076F
:10511000FF07FF07FF07FF07FF07FE07C007E007BE
:10512000E007E007E007E007E007E007E007E00747
:10513000E007E007E007E007E007E007E007E00737
:10514000E007E007E007E007E007E007E007E00727
:10515000E007E007E007C2173DE81FF81FF81FF857
:105160001FF81FF81FF81FF81FF81FF81FF81FF887
:105170001FF81FF81FF81FF81FF81FF81FF81FF877
:105180001FF81FF81FF81FF81FF81FF81FF81FF867
:105190001FF83EF800F000F800F800F800F800F8FA
:1051A00000F800F800F800F800F800F800F800F83F
:1051B00000F800F800F800F800F800F800F800F82F
:1051C00000F800F800F800F800F800F800F800F81F
:1051D00034501F001F001F001F001F001F001F0072
:1051E0001F001F001F001F001F001F001F001F00C7
:1051F0001F001F001F001F001F001F001F001F00B7
:105200001F001F001F001F001F001F0005000000DF
:10521000000000000000000000000000000000008E
:10522000000000000000000000000000000000007E
:10523000000000000000000000000000000000006E
:10524000000000000000A240D3ECFFFFFFFFFFFFC3
:10525000FFFFFFFFFFFFFFFFFFFFFFFFFFFFFFFF5E
:10526000FFFFFFFFFFFFFFFFFFFFFFFFFFFFFFFF4E
:10527000FFFFFFFFFFFFFFFFFFFFFFFFFFFFFFFF3E
:10528000FFFFFEFFC0FFE0FFE0FFE0FFE0FFE0FF09
:10529000E0FFE0FFE0FFE0FFE0FFE0FFE0FFE0FF16
:1052A000E0FFE0FFE0FFE0FFE0FFE0FFE0FFE0FF06
:1052B000E0FFE0FFE0FFE0FFE0FFE0FFE0FFE0FFF6
:1052C000B457FF07FF07FF07FF07FF07FF07FF07A9
:1052D000FF07FF07FF07FF07FF07FF07FF07FF079E
:1052E000FF07FF07FF07FF07FF07FF07FF07FF078E
:1052F000FF07FF07FF07FF07FF07FE07C007E007DD
:10530000E007E007E007E007E007E007E007E00765
:10531000E007E007E007E007E007E007E007E00755
:10532000E007E007E007E007E007E007E007E00745
:10533000E007E007E007C2173DE81FF81FF81FF875
:105340001FF81FF81FF81FF81FF81FF81FF81FF8A5
:105350001FF81FF81FF81FF81FF81FF81FF81FF895
:105360001FF81FF81FF81FF81FF81FF81FF81FF885
:105370001FF83EF800F000F800F800F800F800F818
:1053800000F800F800F800F800F800F800F800F85D
:1053900000F800F800F800F800F800F800F800F84D
:1053A00000F800F800F800F800F800F800F800F83D
:1053B00034501F001F001F001F001F001F001F0090
:1053C0001F001F001F001F001F001F001F001F00E5
:1053D0001F001F001F001F001F001F001F001F00D5
:1053E0001F001F001F001F001F001F0005000000FE
:1053F00000000000000000000000000000000000AD
:10540000000000000000000000000000000000009C
:10541000000000000000000000000000000000008C
:10542000000000000000A240D3ECFFFFFFFFFFFFE1
:10543000FFFFFFFFFFFFFFFFFFFFFFFFFFFFFFFF7C
:10544000FFFFFFFFFFFFFFFFFFFFFFFFFFFFFFFF6C
:10545000FFFFFFFFFFFFFFFFFFFFFFFFFFFFFFFF5C
:10546000FFFFFEFFC0FFE0FFE0FFE0FFE0FFE0FF27
:10547000E0FFE0FFE0FFE0FFE0FFE0FFE0FFE0FF34
:10548000E0FFE0FFE0FFE0FFE0FFE0FFE0FFE0FF24
:10549000E0FFE0FFE0FFE0FFE0FFE0FFE0FFE0FF14
:1054A000B457FF07FF07FF07FF07FF07FF07FF07C7
:1054B000FF07FF07FF07FF07FF07FF07FF07FF07BC
:1054C000FF07FF07FF07FF07FF07FF07FF07FF07AC
:1054D000FF07FF07FF07FF07FF07FE07C007E007FB
:1054E000E007E007E007E007E007E007E007E00784
:1054F000E007E007E007E007E007E007E007E00774
:10550000E007E007E007E007E007E007E007E00763
:10551000E007E007E007C2173DE81FF81FF81FF893
:105520001FF81FF81FF81FF81FF81FF81FF81FF8C3
:105530001FF81FF81FF81FF81FF81FF81FF81FF8B3
:105540001FF81FF81FF81FF81FF81FF81FF81FF8A3
:105550001FF83EF800F000F800F800F800F800F836
:1055600000F800F800F800F800F800F800F800F87B
:1055700000F800F800F800F800F800F800F800F86B
:1055800000F800F800F800F800F800F800F800F85B
:1055900034501F001F001F001F001F001F001F00AE
:1055A0001F001F001F001F001F001F001F001F0003
:1055B0001F001F001F001F001F001F001F001F00F3
:1055C0001F001F001F001F001F001F00050000001C
:1055D00000000000000000000000000000000000CB
:1055E00000000000000000000000000000000000BB
:1055F00000000000000000000000000000000000AB
:10560000000000000000A240D3ECFFFFFFFFFFFFFF
:10561000FFFFFFFFFFFFFFFFFFFFFFFFFFFFFFFF9A
:10562000FFFFFFFFFFFFFFFFFFFFFFFFFFFFFFFF8A
:10563000FFFFFFFFFFFFFFFFFFFFFFFFFFFFFFFF7A
:10564000FFFFFEFFC0FFE0FFE0FFE0FFE0FFE0FF45
:10565000E0FFE0FFE0FFE0FFE0FFE0FFE0FFE0FF52
:10566000E0FFE0FFE0FFE0FFE0FFE0FFE0FFE0FF42
:10567000E0FFE0FFE0FFE0FFE0FFE0FFE0FFE0FF32
:10568000B457FF07FF07FF07FF07FF07FF07FF07E5
:10569000FF07FF07FF07FF07FF07FF07FF07FF07DA
:1056A000FF07FF07FF07FF07FF07FF07FF07FF07CA
:1056B000FF07FF07FF07FF07FF07FE07C007E00719
:1056C000E007E007E007E007E007E007E007E007A2
:1056D000E007E007E007E007E007E007E007E00792
:1056E000E007E007E007E007E007E007E007E00782
:1056F000E007E007E007C2173DE81FF81FF81FF8B2
:105700001FF81FF81FF81FF81FF81FF81FF81FF8E1
:105710001FF81FF81FF81FF81FF81FF81FF81FF8D1
:105720001FF81FF81FF81FF81FF81FF81FF81FF8C1
:105730001FF83EF800F000F800F800F800F800F854
:1057400000F800F800F800F800F800F800F800F899
:1057500000F800F800F800F800F800F800F800F889
:1057600000F800F800F800F800F800F800F800F879
:1057700034501F001F001F001F001F001F001F00CC
:105780001F001F001F001F001F001F001F001F0021
:105790001F001F001F001F001F001F001F001F0011
:1057A0001F001F001F001F001F001F00050000003A
:1057B00000000000000000000000000000000000E9
:1057C00000000000000000000000000000000000D9
:1057D00000000000000000000000000000000000C9
:1057E000000000000000A240D3ECFFFFFFFFFFFF1E
:1057F000FFFFFFFFFFFFFFFFFFFFFFFFFFFFFFFFB9
:10580000FFFFFFFFFFFFFFFFFFFFFFFFFFFFFFFFA8
:10581000FFFFFFFFFFFFFFFFFFFFFFFFFFFFFFFF98
:10582000FFFFFEFFC0FFE0FFE0FFE0FFE0FFE0FF63
:10583000E0FFE0FFE0FFE0FFE0FFE0FFE0FFE0FF70
:10584000E0FFE0FFE0FFE0FFE0FFE0FFE0FFE0FF60
:10585000E0FFE0FFE0FFE0FFE0FFE0FFE0FFE0FF50
:10586000B457FF07FF07FF07FF07FF07FF07FF0703
:10587000FF07FF07FF07FF07FF07FF07FF07FF07F8
:10588000FF07FF07FF07FF07FF07FF07FF07FF07E8
:10589000FF07FF07FF07FF07FF07FE07C007E00737
:1058A000E007E007E007E007E007E007E007E007C0
:1058B000E007E007E007E007E007E007E007E007B0
:1058C000E007E007E007E007E007E007E007E007A0
:1058D000E007E007E007C2173DE81FF81FF81FF8D0
:1058E0001FF81FF81FF81FF81FF81FF81FF81FF800
:1058F0001FF81FF81FF81FF81FF81FF81FF81FF8F0
:105900001FF81FF81FF81FF81FF81FF81FF81FF8DF
:105910001FF83EF800F000F800F800F800F800F872
:1059200000F800F800F800F800F800F800F800F8B7
:1059300000F800F800F800F800F800F800F800F8A7
:1059400000F800F800F800F800F800F800F800F897
:1059500034501F001F001F001F001F001F001F00EA
:105960001F001F001F001F001F001F001F001F003F
:105970001F001F001F001F001F001F001F001F002F
:105980001F001F001F001F001F001F000500000058
:105990000000000000000000000000000000000007
:1059A00000000000000000000000000000000000F7
:1059B00000000000000000000000000000000000E7
:1059C000000000000000A240D3ECFFFFFFFFFFFF3C
:1059D000FFFFFFFFFFFFFFFFFFFFFFFFFFFFFFFFD7
:1059E000FFFFFFFFFFFFFFFFFFFFFFFFFFFFFFFFC7
:1059F000FFFFFFFFFFFFFFFFFFFFFFFFFFFFFFFFB7
:105A0000FFFFFEFFC0FFE0FFE0FFE0FFE0FFE0FF81
:105A1000E0FFE0FFE0FFE0FFE0FFE0FFE0FFE0FF8E
:105A2000E0FFE0FFE0FFE0FFE0FFE0FFE0FFE0FF7E
:105A3000E0FFE0FFE0FFE0FFE0FFE0FFE0FFE0FF6E
:105A4000B457FF07FF07FF07FF07FF07FF07FF0721
:105A5000FF07FF07FF07FF07FF07FF07FF07FF0716
:105A6000FF07FF07FF07FF07FF07FF07FF07FF0706
:105A7000FF07FF07FF07FF07FF07FE07C007E00755
:105A8000E007E007E007E007E007E007E007E007DE
:105A9000E007E007E007E007E007E007E007E007CE
:105AA000E007E007E007E007E007E007E007E007BE
:105AB000E007E007E007C2173DE81FF81FF81FF8EE
:105AC0001FF81FF81FF81FF81FF81FF81FF81FF81E
:105AD0001FF81FF81FF81FF81FF81FF81FF81FF80E
